{
  "_format": "hh-sol-artifact-1",
  "contractName": "TokenExchange",
  "sourceName": "contracts/exchange.sol",
  "abi": [
    {
      "inputs": [],
      "stateMutability": "nonpayable",
      "type": "constructor"
    },
    {
      "anonymous": false,
      "inputs": [
        {
          "indexed": true,
          "internalType": "address",
          "name": "previousOwner",
          "type": "address"
        },
        {
          "indexed": true,
          "internalType": "address",
          "name": "newOwner",
          "type": "address"
        }
      ],
      "name": "OwnershipTransferred",
      "type": "event"
    },
    {
      "inputs": [
        {
          "internalType": "uint256",
          "name": "max_exchange_rate",
          "type": "uint256"
        },
        {
          "internalType": "uint256",
          "name": "min_exchange_rate",
          "type": "uint256"
        }
      ],
      "name": "addLiquidity",
      "outputs": [],
      "stateMutability": "payable",
      "type": "function"
    },
    {
      "inputs": [
        {
          "internalType": "uint256",
          "name": "amountTokens",
          "type": "uint256"
        }
      ],
      "name": "createPool",
      "outputs": [],
      "stateMutability": "payable",
      "type": "function"
    },
    {
      "inputs": [],
      "name": "exchange_name",
      "outputs": [
        {
          "internalType": "string",
          "name": "",
          "type": "string"
        }
      ],
      "stateMutability": "view",
      "type": "function"
    },
    {
      "inputs": [],
      "name": "getSwapFee",
      "outputs": [
        {
          "internalType": "uint256",
          "name": "",
          "type": "uint256"
        },
        {
          "internalType": "uint256",
          "name": "",
          "type": "uint256"
        }
      ],
      "stateMutability": "view",
      "type": "function"
    },
    {
      "inputs": [],
      "name": "getTokenAmount",
      "outputs": [
        {
          "internalType": "uint256",
          "name": "",
          "type": "uint256"
        }
      ],
      "stateMutability": "view",
      "type": "function"
    },
    {
      "inputs": [],
      "name": "getTokenFromAccount",
      "outputs": [
        {
          "internalType": "uint256",
          "name": "",
          "type": "uint256"
        }
      ],
      "stateMutability": "view",
      "type": "function"
    },
    {
      "inputs": [],
      "name": "owner",
      "outputs": [
        {
          "internalType": "address",
          "name": "",
          "type": "address"
        }
      ],
      "stateMutability": "view",
      "type": "function"
    },
    {
      "inputs": [
        {
          "internalType": "uint256",
          "name": "max_exchange_rate",
          "type": "uint256"
        },
        {
          "internalType": "uint256",
          "name": "min_exchange_rate",
          "type": "uint256"
        }
      ],
      "name": "removeAllLiquidity",
      "outputs": [],
      "stateMutability": "payable",
      "type": "function"
    },
    {
      "inputs": [
        {
          "internalType": "uint256",
          "name": "amountETH",
          "type": "uint256"
        },
        {
          "internalType": "uint256",
          "name": "max_exchange_rate",
          "type": "uint256"
        },
        {
          "internalType": "uint256",
          "name": "min_exchange_rate",
          "type": "uint256"
        }
      ],
      "name": "removeLiquidity",
      "outputs": [],
      "stateMutability": "payable",
      "type": "function"
    },
    {
      "inputs": [],
      "name": "renounceOwnership",
      "outputs": [],
      "stateMutability": "nonpayable",
      "type": "function"
    },
    {
      "inputs": [
        {
          "internalType": "uint256",
          "name": "max_exchange_rate",
          "type": "uint256"
        }
      ],
      "name": "swapETHForTokens",
      "outputs": [],
      "stateMutability": "payable",
      "type": "function"
    },
    {
      "inputs": [
        {
          "internalType": "uint256",
          "name": "amountTokens",
          "type": "uint256"
        },
        {
          "internalType": "uint256",
          "name": "max_exchange_rate",
          "type": "uint256"
        }
      ],
      "name": "swapTokensForETH",
      "outputs": [],
      "stateMutability": "payable",
      "type": "function"
    },
    {
      "inputs": [],
      "name": "token",
      "outputs": [
        {
          "internalType": "contract Token",
          "name": "",
          "type": "address"
        }
      ],
      "stateMutability": "view",
      "type": "function"
    },
    {
      "inputs": [
        {
          "internalType": "address",
          "name": "newOwner",
          "type": "address"
        }
      ],
      "name": "transferOwnership",
      "outputs": [],
      "stateMutability": "nonpayable",
      "type": "function"
    }
  ],
  "bytecode": "0x60806040526040518060400160405280600781526020017f756e697377617000000000000000000000000000000000000000000000000000815250600190816200004a9190620004b5565b50735fbdb2315678afecb367f032d93f642f64180aa3600260006101000a81548173ffffffffffffffffffffffffffffffffffffffff021916908373ffffffffffffffffffffffffffffffffffffffff160217905550600260009054906101000a900473ffffffffffffffffffffffffffffffffffffffff16600360006101000a81548173ffffffffffffffffffffffffffffffffffffffff021916908373ffffffffffffffffffffffffffffffffffffffff1602179055506000600455600060055560036009556064600a556000600b60006101000a81548160ff02191690831515021790555064e8d4a51000600d553480156200014857600080fd5b50620001696200015d6200016f60201b60201c565b6200017760201b60201c565b6200059c565b600033905090565b60008060009054906101000a900473ffffffffffffffffffffffffffffffffffffffff169050816000806101000a81548173ffffffffffffffffffffffffffffffffffffffff021916908373ffffffffffffffffffffffffffffffffffffffff1602179055508173ffffffffffffffffffffffffffffffffffffffff168173ffffffffffffffffffffffffffffffffffffffff167f8be0079c531659141344cd1fd0a4f28419497f9722a3daafe3b4186f6b6457e060405160405180910390a35050565b600081519050919050565b7f4e487b7100000000000000000000000000000000000000000000000000000000600052604160045260246000fd5b7f4e487b7100000000000000000000000000000000000000000000000000000000600052602260045260246000fd5b60006002820490506001821680620002bd57607f821691505b602082108103620002d357620002d262000275565b5b50919050565b60008190508160005260206000209050919050565b60006020601f8301049050919050565b600082821b905092915050565b6000600883026200033d7fffffffffffffffffffffffffffffffffffffffffffffffffffffffffffffffff82620002fe565b620003498683620002fe565b95508019841693508086168417925050509392505050565b6000819050919050565b6000819050919050565b600062000396620003906200038a8462000361565b6200036b565b62000361565b9050919050565b6000819050919050565b620003b28362000375565b620003ca620003c1826200039d565b8484546200030b565b825550505050565b600090565b620003e1620003d2565b620003ee818484620003a7565b505050565b5b8181101562000416576200040a600082620003d7565b600181019050620003f4565b5050565b601f82111562000465576200042f81620002d9565b6200043a84620002ee565b810160208510156200044a578190505b620004626200045985620002ee565b830182620003f3565b50505b505050565b600082821c905092915050565b60006200048a600019846008026200046a565b1980831691505092915050565b6000620004a5838362000477565b9150826002028217905092915050565b620004c0826200023b565b67ffffffffffffffff811115620004dc57620004db62000246565b5b620004e88254620002a4565b620004f58282856200041a565b600060209050601f8311600181146200052d576000841562000518578287015190505b62000524858262000497565b86555062000594565b601f1984166200053d86620002d9565b60005b82811015620005675784890151825560018201915060208501945060208101905062000540565b8683101562000587578489015162000583601f89168262000477565b8355505b6001600288020188555050505b505050505050565b6131b980620005ac6000396000f3fe6080604052600436106100dd5760003560e01c80639cd441da1161007f578063d4cadf6811610059578063d4cadf6814610222578063f2fde38b1461024e578063f694f7d114610277578063fc0c546a146102a2576100dd565b80639cd441da146101bf578063a22280a6146101db578063a6dde493146101f7576100dd565b806375f91ec8116100bb57806375f91ec8146101315780638259e6a01461015c578063857620e1146101785780638da5cb5b14610194576100dd565b80632eab2841146100e257806358ad6de4146100fe578063715018a61461011a575b600080fd5b6100fc60048036038101906100f79190612111565b6102cd565b005b6101186004803603810190610113919061213e565b6105ab565b005b34801561012657600080fd5b5061012f610685565b005b34801561013d57600080fd5b50610146610699565b604051610153919061218d565b60405180910390f35b61017660048036038101906101719190612111565b6106e0565b005b610192600480360381019061018d91906121a8565b610a85565b005b3480156101a057600080fd5b506101a961114f565b6040516101b6919061223c565b60405180910390f35b6101d960048036038101906101d4919061213e565b611178565b005b6101f560048036038101906101f0919061213e565b611819565b005b34801561020357600080fd5b5061020c611c1f565b604051610219919061218d565b60405180910390f35b34801561022e57600080fd5b50610237611cc2565b604051610245929190612257565b60405180910390f35b34801561025a57600080fd5b50610275600480360381019061027091906122ac565b611cd3565b005b34801561028357600080fd5b5061028c611d56565b6040516102999190612369565b60405180910390f35b3480156102ae57600080fd5b506102b7611de4565b6040516102c491906123ea565b60405180910390f35b600b60009054906101000a900460ff16156102e757600080fd5b6001600b60006101000a81548160ff02191690831515021790555060003411610345576040517f08c379a000000000000000000000000000000000000000000000000000000000815260040161033c90612477565b60405180910390fd5b60003460055461035591906124c6565b600c546103629190612529565b60045461036f919061255a565b90506000600a5460095483610384919061258e565b61038e9190612529565b9050808261039c919061255a565b91506001826004546103ae919061255a565b10156103ef576040517f08c379a00000000000000000000000000000000000000000000000000000000081526004016103e690612642565b60405180910390fd5b826004546005546104009190612529565b1115610441576040517f08c379a0000000000000000000000000000000000000000000000000000000008152600401610438906126d4565b60405180910390fd5b47600581905550600360009054906101000a900473ffffffffffffffffffffffffffffffffffffffff1673ffffffffffffffffffffffffffffffffffffffff1663a9059cbb33846040518363ffffffff1660e01b81526004016104a59291906126f4565b6020604051808303816000875af11580156104c4573d6000803e3d6000fd5b505050506040513d601f19601f820116820180604052508101906104e89190612755565b50600360009054906101000a900473ffffffffffffffffffffffffffffffffffffffff1673ffffffffffffffffffffffffffffffffffffffff166370a08231306040518263ffffffff1660e01b8152600401610544919061223c565b602060405180830381865afa158015610561573d6000803e3d6000fd5b505050506040513d601f19601f820116820180604052508101906105859190612797565b6004819055506000600b60006101000a81548160ff021916908315150217905550505050565b6000600d54600454600660003373ffffffffffffffffffffffffffffffffffffffff1673ffffffffffffffffffffffffffffffffffffffff168152602001908152602001600020546105fd919061258e565b6106079190612529565b9050600181600454610619919061255a565b101561062f5760018161062c919061255a565b90505b600060045460055483610642919061258e565b61064c9190612529565b905060018160055461065e919061255a565b101561067457600181610671919061255a565b90505b61067f818585610a85565b50505050565b61068d611e0a565b6106976000611e88565b565b6000600660003373ffffffffffffffffffffffffffffffffffffffff1673ffffffffffffffffffffffffffffffffffffffff16815260200190815260200160002054905090565b6106e8611e0a565b60006004541461072d576040517f08c379a000000000000000000000000000000000000000000000000000000000815260040161072490612810565b60405180910390fd5b600060055414610772576040517f08c379a00000000000000000000000000000000000000000000000000000000081526004016107699061287c565b60405180910390fd5b600034116107b5576040517f08c379a00000000000000000000000000000000000000000000000000000000081526004016107ac906128e8565b60405180910390fd5b6000600360009054906101000a900473ffffffffffffffffffffffffffffffffffffffff1673ffffffffffffffffffffffffffffffffffffffff166370a08231336040518263ffffffff1660e01b8152600401610812919061223c565b602060405180830381865afa15801561082f573d6000803e3d6000fd5b505050506040513d601f19601f820116820180604052508101906108539190612797565b905080821115610898576040517f08c379a000000000000000000000000000000000000000000000000000000000815260040161088f9061297a565b60405180910390fd5b600082116108db576040517f08c379a00000000000000000000000000000000000000000000000000000000081526004016108d2906129e6565b60405180910390fd5b81600760003373ffffffffffffffffffffffffffffffffffffffff1673ffffffffffffffffffffffffffffffffffffffff16815260200190815260200160002081905550600360009054906101000a900473ffffffffffffffffffffffffffffffffffffffff1673ffffffffffffffffffffffffffffffffffffffff166323b872dd3330856040518463ffffffff1660e01b815260040161097e93929190612a06565b6020604051808303816000875af115801561099d573d6000803e3d6000fd5b505050506040513d601f19601f820116820180604052508101906109c19190612755565b50600360009054906101000a900473ffffffffffffffffffffffffffffffffffffffff1673ffffffffffffffffffffffffffffffffffffffff166370a08231306040518263ffffffff1660e01b8152600401610a1d919061223c565b602060405180830381865afa158015610a3a573d6000803e3d6000fd5b505050506040513d601f19601f82011682018060405250810190610a5e9190612797565b60048190555034600581905550600554600454610a7b919061258e565b600c819055505050565b600b60009054906101000a900460ff1615610a9f57600080fd5b6001600b60006101000a81548160ff021916908315150217905550600060055460045485610acd919061258e565b610ad79190612529565b9050600454600660003373ffffffffffffffffffffffffffffffffffffffff1673ffffffffffffffffffffffffffffffffffffffff16815260200190815260200160002054610b26919061258e565b600d5482610b34919061258e565b1115610b75576040517f08c379a0000000000000000000000000000000000000000000000000000000008152600401610b6c90612aaf565b60405180910390fd5b818185610b829190612529565b1015610bc3576040517f08c379a0000000000000000000000000000000000000000000000000000000008152600401610bba90612b1b565b60405180910390fd5b828185610bd09190612529565b1115610c11576040517f08c379a0000000000000000000000000000000000000000000000000000000008152600401610c0890612b87565b60405180910390fd5b60006004549050600082600454610c28919061255a565b11610c68576040517f08c379a0000000000000000000000000000000000000000000000000000000008152600401610c5f90612c19565b60405180910390fd5b600085600554610c78919061255a565b11610cb8576040517f08c379a0000000000000000000000000000000000000000000000000000000008152600401610caf90612cab565b60405180910390fd5b600360009054906101000a900473ffffffffffffffffffffffffffffffffffffffff1673ffffffffffffffffffffffffffffffffffffffff1663a9059cbb33846040518363ffffffff1660e01b8152600401610d159291906126f4565b6020604051808303816000875af1158015610d34573d6000803e3d6000fd5b505050506040513d601f19601f82011682018060405250810190610d589190612755565b50600360009054906101000a900473ffffffffffffffffffffffffffffffffffffffff1673ffffffffffffffffffffffffffffffffffffffff166370a08231306040518263ffffffff1660e01b8152600401610db4919061223c565b602060405180830381865afa158015610dd1573d6000803e3d6000fd5b505050506040513d601f19601f82011682018060405250810190610df59190612797565b6004819055503373ffffffffffffffffffffffffffffffffffffffff166108fc869081150290604051600060405180830381858888f19350505050158015610e41573d6000803e3d6000fd5b5047600581905550600554600454610e59919061258e565b600c81905550600454600d5483610e70919061258e565b82600660003373ffffffffffffffffffffffffffffffffffffffff1673ffffffffffffffffffffffffffffffffffffffff16815260200190815260200160002054610ebb919061258e565b610ec5919061255a565b610ecf9190612529565b600660003373ffffffffffffffffffffffffffffffffffffffff1673ffffffffffffffffffffffffffffffffffffffff168152602001908152602001600020819055506000805b6008805490508110156110da573373ffffffffffffffffffffffffffffffffffffffff1660088281548110610f4e57610f4d612ccb565b5b9060005260206000200160009054906101000a900473ffffffffffffffffffffffffffffffffffffffff1673ffffffffffffffffffffffffffffffffffffffff1603610f9c578091506110c7565b826006600060088481548110610fb557610fb4612ccb565b5b9060005260206000200160009054906101000a900473ffffffffffffffffffffffffffffffffffffffff1673ffffffffffffffffffffffffffffffffffffffff1673ffffffffffffffffffffffffffffffffffffffff1681526020019081526020016000206000828254611029919061258e565b92505081905550600454600660006008848154811061104b5761104a612ccb565b5b9060005260206000200160009054906101000a900473ffffffffffffffffffffffffffffffffffffffff1673ffffffffffffffffffffffffffffffffffffffff1673ffffffffffffffffffffffffffffffffffffffff16815260200190815260200160002060008282546110bf9190612529565b925050819055505b80806110d290612cfa565b915050610f16565b506000600660003373ffffffffffffffffffffffffffffffffffffffff1673ffffffffffffffffffffffffffffffffffffffff168152602001908152602001600020540361112c5761112b81611f4c565b5b6000600b60006101000a81548160ff021916908315150217905550505050505050565b60008060009054906101000a900473ffffffffffffffffffffffffffffffffffffffff16905090565b6000349050600081116111c0576040517f08c379a00000000000000000000000000000000000000000000000000000000081526004016111b790612db4565b60405180910390fd5b6000600554600454836111d3919061258e565b6111dd9190612529565b9050600360009054906101000a900473ffffffffffffffffffffffffffffffffffffffff1673ffffffffffffffffffffffffffffffffffffffff166370a08231336040518263ffffffff1660e01b815260040161123a919061223c565b602060405180830381865afa158015611257573d6000803e3d6000fd5b505050506040513d601f19601f8201168201806040525081019061127b9190612797565b8111156112bd576040517f08c379a00000000000000000000000000000000000000000000000000000000081526004016112b490612aaf565b60405180910390fd5b8281836112ca9190612529565b101561130b576040517f08c379a000000000000000000000000000000000000000000000000000000000815260040161130290612b1b565b60405180910390fd5b8381836113189190612529565b1115611359576040517f08c379a000000000000000000000000000000000000000000000000000000000815260040161135090612b87565b60405180910390fd5b600360009054906101000a900473ffffffffffffffffffffffffffffffffffffffff1673ffffffffffffffffffffffffffffffffffffffff166323b872dd3330846040518463ffffffff1660e01b81526004016113b893929190612a06565b6020604051808303816000875af11580156113d7573d6000803e3d6000fd5b505050506040513d601f19601f820116820180604052508101906113fb9190612755565b50600360009054906101000a900473ffffffffffffffffffffffffffffffffffffffff1673ffffffffffffffffffffffffffffffffffffffff166370a08231306040518263ffffffff1660e01b8152600401611457919061223c565b602060405180830381865afa158015611474573d6000803e3d6000fd5b505050506040513d601f19601f820116820180604052508101906114989190612797565b600481905550476005819055506005546004546114b5919061258e565b600c819055506000816004546114cb919061255a565b90506000805b600880549050811015611749573373ffffffffffffffffffffffffffffffffffffffff166008828154811061150957611508612ccb565b5b9060005260206000200160009054906101000a900473ffffffffffffffffffffffffffffffffffffffff1673ffffffffffffffffffffffffffffffffffffffff160361160b5760019150600454600d5485611564919061258e565b84600660003373ffffffffffffffffffffffffffffffffffffffff1673ffffffffffffffffffffffffffffffffffffffff168152602001908152602001600020546115af919061258e565b6115b991906124c6565b6115c39190612529565b600660003373ffffffffffffffffffffffffffffffffffffffff1673ffffffffffffffffffffffffffffffffffffffff16815260200190815260200160002081905550611736565b82600660006008848154811061162457611623612ccb565b5b9060005260206000200160009054906101000a900473ffffffffffffffffffffffffffffffffffffffff1673ffffffffffffffffffffffffffffffffffffffff1673ffffffffffffffffffffffffffffffffffffffff1681526020019081526020016000206000828254611698919061258e565b9250508190555060045460066000600884815481106116ba576116b9612ccb565b5b9060005260206000200160009054906101000a900473ffffffffffffffffffffffffffffffffffffffff1673ffffffffffffffffffffffffffffffffffffffff1673ffffffffffffffffffffffffffffffffffffffff168152602001908152602001600020600082825461172e9190612529565b925050819055505b808061174190612cfa565b9150506114d1565b5080611811576008339080600181540180825580915050600190039060005260206000200160009091909190916101000a81548173ffffffffffffffffffffffffffffffffffffffff021916908373ffffffffffffffffffffffffffffffffffffffff160217905550600454600d54846117c3919061258e565b6117cd9190612529565b600660003373ffffffffffffffffffffffffffffffffffffffff1673ffffffffffffffffffffffffffffffffffffffff168152602001908152602001600020819055505b505050505050565b600b60009054906101000a900460ff161561183357600080fd5b6001600b60006101000a81548160ff02191690831515021790555060008211611891576040517f08c379a000000000000000000000000000000000000000000000000000000000815260040161188890612e46565b60405180910390fd5b600360009054906101000a900473ffffffffffffffffffffffffffffffffffffffff1673ffffffffffffffffffffffffffffffffffffffff166370a08231336040518263ffffffff1660e01b81526004016118ec919061223c565b602060405180830381865afa158015611909573d6000803e3d6000fd5b505050506040513d601f19601f8201168201806040525081019061192d9190612797565b82111561196f576040517f08c379a000000000000000000000000000000000000000000000000000000000815260040161196690612eb2565b60405180910390fd5b60008260045461197f91906124c6565b600c5461198c9190612529565b600554611999919061255a565b90506000600a54600954836119ae919061258e565b6119b89190612529565b905080826119c6919061255a565b91506001826005546119d8919061255a565b1015611a19576040517f08c379a0000000000000000000000000000000000000000000000000000000008152600401611a1090612f44565b60405180910390fd5b82600454600554611a2a9190612529565b1115611a6b576040517f08c379a0000000000000000000000000000000000000000000000000000000008152600401611a62906126d4565b60405180910390fd5b600360009054906101000a900473ffffffffffffffffffffffffffffffffffffffff1673ffffffffffffffffffffffffffffffffffffffff166323b872dd3330876040518463ffffffff1660e01b8152600401611aca93929190612a06565b6020604051808303816000875af1158015611ae9573d6000803e3d6000fd5b505050506040513d601f19601f82011682018060405250810190611b0d9190612755565b50600360009054906101000a900473ffffffffffffffffffffffffffffffffffffffff1673ffffffffffffffffffffffffffffffffffffffff166370a08231306040518263ffffffff1660e01b8152600401611b69919061223c565b602060405180830381865afa158015611b86573d6000803e3d6000fd5b505050506040513d601f19601f82011682018060405250810190611baa9190612797565b6004819055503373ffffffffffffffffffffffffffffffffffffffff166108fc839081150290604051600060405180830381858888f19350505050158015611bf6573d6000803e3d6000fd5b50476005819055506000600b60006101000a81548160ff02191690831515021790555050505050565b6000600360009054906101000a900473ffffffffffffffffffffffffffffffffffffffff1673ffffffffffffffffffffffffffffffffffffffff166370a08231336040518263ffffffff1660e01b8152600401611c7c919061223c565b602060405180830381865afa158015611c99573d6000803e3d6000fd5b505050506040513d601f19601f82011682018060405250810190611cbd9190612797565b905090565b600080600954600a54915091509091565b611cdb611e0a565b600073ffffffffffffffffffffffffffffffffffffffff168173ffffffffffffffffffffffffffffffffffffffff1603611d4a576040517f08c379a0000000000000000000000000000000000000000000000000000000008152600401611d4190612fd6565b60405180910390fd5b611d5381611e88565b50565b60018054611d6390613025565b80601f0160208091040260200160405190810160405280929190818152602001828054611d8f90613025565b8015611ddc5780601f10611db157610100808354040283529160200191611ddc565b820191906000526020600020905b815481529060010190602001808311611dbf57829003601f168201915b505050505081565b600360009054906101000a900473ffffffffffffffffffffffffffffffffffffffff1681565b611e126120ce565b73ffffffffffffffffffffffffffffffffffffffff16611e3061114f565b73ffffffffffffffffffffffffffffffffffffffff1614611e86576040517f08c379a0000000000000000000000000000000000000000000000000000000008152600401611e7d906130a2565b60405180910390fd5b565b60008060009054906101000a900473ffffffffffffffffffffffffffffffffffffffff169050816000806101000a81548173ffffffffffffffffffffffffffffffffffffffff021916908373ffffffffffffffffffffffffffffffffffffffff1602179055508173ffffffffffffffffffffffffffffffffffffffff168173ffffffffffffffffffffffffffffffffffffffff167f8be0079c531659141344cd1fd0a4f28419497f9722a3daafe3b4186f6b6457e060405160405180910390a35050565b6008805490508110611f93576040517f08c379a0000000000000000000000000000000000000000000000000000000008152600401611f8a90613134565b60405180910390fd5b60086001600880549050611fa7919061255a565b81548110611fb857611fb7612ccb565b5b9060005260206000200160009054906101000a900473ffffffffffffffffffffffffffffffffffffffff1660088281548110611ff757611ff6612ccb565b5b9060005260206000200160006101000a81548173ffffffffffffffffffffffffffffffffffffffff021916908373ffffffffffffffffffffffffffffffffffffffff1602179055506000600760003373ffffffffffffffffffffffffffffffffffffffff1673ffffffffffffffffffffffffffffffffffffffff16815260200190815260200160002081905550600880548061209657612095613154565b5b6001900381819060005260206000200160006101000a81549073ffffffffffffffffffffffffffffffffffffffff0219169055905550565b600033905090565b600080fd5b6000819050919050565b6120ee816120db565b81146120f957600080fd5b50565b60008135905061210b816120e5565b92915050565b600060208284031215612127576121266120d6565b5b6000612135848285016120fc565b91505092915050565b60008060408385031215612155576121546120d6565b5b6000612163858286016120fc565b9250506020612174858286016120fc565b9150509250929050565b612187816120db565b82525050565b60006020820190506121a2600083018461217e565b92915050565b6000806000606084860312156121c1576121c06120d6565b5b60006121cf868287016120fc565b93505060206121e0868287016120fc565b92505060406121f1868287016120fc565b9150509250925092565b600073ffffffffffffffffffffffffffffffffffffffff82169050919050565b6000612226826121fb565b9050919050565b6122368161221b565b82525050565b6000602082019050612251600083018461222d565b92915050565b600060408201905061226c600083018561217e565b612279602083018461217e565b9392505050565b6122898161221b565b811461229457600080fd5b50565b6000813590506122a681612280565b92915050565b6000602082840312156122c2576122c16120d6565b5b60006122d084828501612297565b91505092915050565b600081519050919050565b600082825260208201905092915050565b60005b838110156123135780820151818401526020810190506122f8565b60008484015250505050565b6000601f19601f8301169050919050565b600061233b826122d9565b61234581856122e4565b93506123558185602086016122f5565b61235e8161231f565b840191505092915050565b600060208201905081810360008301526123838184612330565b905092915050565b6000819050919050565b60006123b06123ab6123a6846121fb565b61238b565b6121fb565b9050919050565b60006123c282612395565b9050919050565b60006123d4826123b7565b9050919050565b6123e4816123c9565b82525050565b60006020820190506123ff60008301846123db565b92915050565b7f4572726f723a204d7573742073776170206120706f73697469766520616d6f7560008201527f6e74206f66204554480000000000000000000000000000000000000000000000602082015250565b60006124616029836122e4565b915061246c82612405565b604082019050919050565b6000602082019050818103600083015261249081612454565b9050919050565b7f4e487b7100000000000000000000000000000000000000000000000000000000600052601160045260246000fd5b60006124d1826120db565b91506124dc836120db565b92508282019050808211156124f4576124f3612497565b5b92915050565b7f4e487b7100000000000000000000000000000000000000000000000000000000600052601260045260246000fd5b6000612534826120db565b915061253f836120db565b92508261254f5761254e6124fa565b5b828204905092915050565b6000612565826120db565b9150612570836120db565b925082820390508181111561258857612587612497565b5b92915050565b6000612599826120db565b91506125a4836120db565b92508282026125b2816120db565b915082820484148315176125c9576125c8612497565b5b5092915050565b7f4572726f723a2043616e6e6f74206465706c65746520546f6b656e207265736560008201527f727665732062656c6f77203120546f6b656e0000000000000000000000000000602082015250565b600061262c6032836122e4565b9150612637826125d0565b604082019050919050565b6000602082019050818103600083015261265b8161261f565b9050919050565b7f4572726f723a2045786368616e6765207261746520677265617465722074686160008201527f6e20737065636966696564207261746500000000000000000000000000000000602082015250565b60006126be6030836122e4565b91506126c982612662565b604082019050919050565b600060208201905081810360008301526126ed816126b1565b9050919050565b6000604082019050612709600083018561222d565b612716602083018461217e565b9392505050565b60008115159050919050565b6127328161271d565b811461273d57600080fd5b50565b60008151905061274f81612729565b92915050565b60006020828403121561276b5761276a6120d6565b5b600061277984828501612740565b91505092915050565b600081519050612791816120e5565b92915050565b6000602082840312156127ad576127ac6120d6565b5b60006127bb84828501612782565b91505092915050565b7f546f6b656e20726573657276657320776173206e6f7420300000000000000000600082015250565b60006127fa6018836122e4565b9150612805826127c4565b602082019050919050565b60006020820190508181036000830152612829816127ed565b9050919050565b7f45544820726573657276657320776173206e6f7420302e000000000000000000600082015250565b60006128666017836122e4565b915061287182612830565b602082019050919050565b6000602082019050818103600083015261289581612859565b9050919050565b7f4e6565642065746820746f2063726561746520706f6f6c2e0000000000000000600082015250565b60006128d26018836122e4565b91506128dd8261289c565b602082019050919050565b60006020820190508181036000830152612901816128c5565b9050919050565b7f4e6f74206861766520656e6f75676820746f6b656e7320746f2063726561746560008201527f2074686520706f6f6c0000000000000000000000000000000000000000000000602082015250565b60006129646029836122e4565b915061296f82612908565b604082019050919050565b6000602082019050818103600083015261299381612957565b9050919050565b7f4e65656420746f6b656e7320746f2063726561746520706f6f6c2e0000000000600082015250565b60006129d0601b836122e4565b91506129db8261299a565b602082019050919050565b600060208201905081810360008301526129ff816129c3565b9050919050565b6000606082019050612a1b600083018661222d565b612a28602083018561222d565b612a35604083018461217e565b949350505050565b7f4572726f723a205573657220646f6573206e6f74206861766520656e6f75676860008201527f20746f6b656e7300000000000000000000000000000000000000000000000000602082015250565b6000612a996027836122e4565b9150612aa482612a3d565b604082019050919050565b60006020820190508181036000830152612ac881612a8c565b9050919050565b7f4572726f723a2042656c6f77206d696e2065786368616e676520726174650000600082015250565b6000612b05601e836122e4565b9150612b1082612acf565b602082019050919050565b60006020820190508181036000830152612b3481612af8565b9050919050565b7f4572726f723a2041626f7665206d61782065786368616e676520726174650000600082015250565b6000612b71601e836122e4565b9150612b7c82612b3b565b602082019050919050565b60006020820190508181036000830152612ba081612b64565b9050919050565b7f4572726f723a2043616e6e6f74206465706c65746520746f6b656e207265736560008201527f7276657320746f20300000000000000000000000000000000000000000000000602082015250565b6000612c036029836122e4565b9150612c0e82612ba7565b604082019050919050565b60006020820190508181036000830152612c3281612bf6565b9050919050565b7f4572726f723a2043616e6e6f74206465706c657465204554482072657365727660008201527f657320746f203000000000000000000000000000000000000000000000000000602082015250565b6000612c956027836122e4565b9150612ca082612c39565b604082019050919050565b60006020820190508181036000830152612cc481612c88565b9050919050565b7f4e487b7100000000000000000000000000000000000000000000000000000000600052603260045260246000fd5b6000612d05826120db565b91507fffffffffffffffffffffffffffffffffffffffffffffffffffffffffffffffff8203612d3757612d36612497565b5b600182019050919050565b7f4572726f723a20537570706c79206f6620455448206e6f7420706f736974697660008201527f6500000000000000000000000000000000000000000000000000000000000000602082015250565b6000612d9e6021836122e4565b9150612da982612d42565b604082019050919050565b60006020820190508181036000830152612dcd81612d91565b9050919050565b7f4572726f723a204d7573742073776170206120706f73697469766520616d6f7560008201527f6e74206f6620546f6b656e730000000000000000000000000000000000000000602082015250565b6000612e30602c836122e4565b9150612e3b82612dd4565b604082019050919050565b60006020820190508181036000830152612e5f81612e23565b9050919050565b7f4572726f723a20446f6e2774206861766520656e6f75676820746f6b656e7300600082015250565b6000612e9c601f836122e4565b9150612ea782612e66565b602082019050919050565b60006020820190508181036000830152612ecb81612e8f565b9050919050565b7f4572726f723a2043616e6e6f74206465706c657465204554482072657365727660008201527f65732062656c6f77203120455448000000000000000000000000000000000000602082015250565b6000612f2e602e836122e4565b9150612f3982612ed2565b604082019050919050565b60006020820190508181036000830152612f5d81612f21565b9050919050565b7f4f776e61626c653a206e6577206f776e657220697320746865207a65726f206160008201527f6464726573730000000000000000000000000000000000000000000000000000602082015250565b6000612fc06026836122e4565b9150612fcb82612f64565b604082019050919050565b60006020820190508181036000830152612fef81612fb3565b9050919050565b7f4e487b7100000000000000000000000000000000000000000000000000000000600052602260045260246000fd5b6000600282049050600182168061303d57607f821691505b6020821081036130505761304f612ff6565b5b50919050565b7f4f776e61626c653a2063616c6c6572206973206e6f7420746865206f776e6572600082015250565b600061308c6020836122e4565b915061309782613056565b602082019050919050565b600060208201905081810360008301526130bb8161307f565b9050919050565b7f73706563696669656420696e646578206973206c6172676572207468616e207460008201527f6865206e756d626572206f66206c707300000000000000000000000000000000602082015250565b600061311e6030836122e4565b9150613129826130c2565b604082019050919050565b6000602082019050818103600083015261314d81613111565b9050919050565b7f4e487b7100000000000000000000000000000000000000000000000000000000600052603160045260246000fdfea264697066735822122080f4061397940568229922fb5577a09edb3709c0a88fefcd1a5a7e109174510c64736f6c63430008110033",
  "linkReferences": {},
  "deployedLinkReferences": {}
}