{
  "_format": "hh-sol-artifact-1",
  "contractName": "TokenExchange",
  "sourceName": "contracts/exchange.sol",
  "abi": [
    {
      "inputs": [],
      "stateMutability": "nonpayable",
      "type": "constructor"
    },
    {
      "anonymous": false,
      "inputs": [
        {
          "indexed": true,
          "internalType": "address",
          "name": "previousOwner",
          "type": "address"
        },
        {
          "indexed": true,
          "internalType": "address",
          "name": "newOwner",
          "type": "address"
        }
      ],
      "name": "OwnershipTransferred",
      "type": "event"
    },
    {
      "inputs": [
        {
          "internalType": "uint256",
          "name": "max_exchange_rate",
          "type": "uint256"
        },
        {
          "internalType": "uint256",
          "name": "min_exchange_rate",
          "type": "uint256"
        }
      ],
      "name": "addLiquidity",
      "outputs": [],
      "stateMutability": "payable",
      "type": "function"
    },
    {
      "inputs": [
        {
          "internalType": "uint256",
          "name": "amountTokens",
          "type": "uint256"
        }
      ],
      "name": "createPool",
      "outputs": [],
      "stateMutability": "payable",
      "type": "function"
    },
    {
      "inputs": [],
      "name": "exchange_name",
      "outputs": [
        {
          "internalType": "string",
          "name": "",
          "type": "string"
        }
      ],
      "stateMutability": "view",
      "type": "function"
    },
    {
      "inputs": [],
      "name": "getSwapFee",
      "outputs": [
        {
          "internalType": "uint256",
          "name": "",
          "type": "uint256"
        },
        {
          "internalType": "uint256",
          "name": "",
          "type": "uint256"
        }
      ],
      "stateMutability": "view",
      "type": "function"
    },
    {
      "inputs": [],
      "name": "getTokenAmount",
      "outputs": [
        {
          "internalType": "uint256",
          "name": "",
          "type": "uint256"
        }
      ],
      "stateMutability": "view",
      "type": "function"
    },
    {
      "inputs": [],
      "name": "getTokenFromAccount",
      "outputs": [
        {
          "internalType": "uint256",
          "name": "",
          "type": "uint256"
        }
      ],
      "stateMutability": "view",
      "type": "function"
    },
    {
      "inputs": [],
      "name": "owner",
      "outputs": [
        {
          "internalType": "address",
          "name": "",
          "type": "address"
        }
      ],
      "stateMutability": "view",
      "type": "function"
    },
    {
      "inputs": [
        {
          "internalType": "uint256",
          "name": "max_exchange_rate",
          "type": "uint256"
        },
        {
          "internalType": "uint256",
          "name": "min_exchange_rate",
          "type": "uint256"
        }
      ],
      "name": "removeAllLiquidity",
      "outputs": [],
      "stateMutability": "payable",
      "type": "function"
    },
    {
      "inputs": [
        {
          "internalType": "uint256",
          "name": "amountETH",
          "type": "uint256"
        },
        {
          "internalType": "uint256",
          "name": "max_exchange_rate",
          "type": "uint256"
        },
        {
          "internalType": "uint256",
          "name": "min_exchange_rate",
          "type": "uint256"
        }
      ],
      "name": "removeLiquidity",
      "outputs": [],
      "stateMutability": "payable",
      "type": "function"
    },
    {
      "inputs": [],
      "name": "renounceOwnership",
      "outputs": [],
      "stateMutability": "nonpayable",
      "type": "function"
    },
    {
      "inputs": [
        {
          "internalType": "uint256",
          "name": "max_exchange_rate",
          "type": "uint256"
        }
      ],
      "name": "swapETHForTokens",
      "outputs": [],
      "stateMutability": "payable",
      "type": "function"
    },
    {
      "inputs": [
        {
          "internalType": "uint256",
          "name": "amountTokens",
          "type": "uint256"
        },
        {
          "internalType": "uint256",
          "name": "max_exchange_rate",
          "type": "uint256"
        }
      ],
      "name": "swapTokensForETH",
      "outputs": [],
      "stateMutability": "payable",
      "type": "function"
    },
    {
      "inputs": [],
      "name": "token",
      "outputs": [
        {
          "internalType": "contract Token",
          "name": "",
          "type": "address"
        }
      ],
      "stateMutability": "view",
      "type": "function"
    },
    {
      "inputs": [
        {
          "internalType": "address",
          "name": "newOwner",
          "type": "address"
        }
      ],
      "name": "transferOwnership",
      "outputs": [],
      "stateMutability": "nonpayable",
      "type": "function"
    }
  ],
  "bytecode": "0x60806040526040518060400160405280600781526020017f756e697377617000000000000000000000000000000000000000000000000000815250600190816200004a9190620004ac565b50735fbdb2315678afecb367f032d93f642f64180aa3600260006101000a81548173ffffffffffffffffffffffffffffffffffffffff021916908373ffffffffffffffffffffffffffffffffffffffff160217905550600260009054906101000a900473ffffffffffffffffffffffffffffffffffffffff16600360006101000a81548173ffffffffffffffffffffffffffffffffffffffff021916908373ffffffffffffffffffffffffffffffffffffffff16021790555060006004556000600555600360085560646009556000600a60006101000a81548160ff0219169083151502179055503480156200013f57600080fd5b5062000160620001546200016660201b60201c565b6200016e60201b60201c565b62000593565b600033905090565b60008060009054906101000a900473ffffffffffffffffffffffffffffffffffffffff169050816000806101000a81548173ffffffffffffffffffffffffffffffffffffffff021916908373ffffffffffffffffffffffffffffffffffffffff1602179055508173ffffffffffffffffffffffffffffffffffffffff168173ffffffffffffffffffffffffffffffffffffffff167f8be0079c531659141344cd1fd0a4f28419497f9722a3daafe3b4186f6b6457e060405160405180910390a35050565b600081519050919050565b7f4e487b7100000000000000000000000000000000000000000000000000000000600052604160045260246000fd5b7f4e487b7100000000000000000000000000000000000000000000000000000000600052602260045260246000fd5b60006002820490506001821680620002b457607f821691505b602082108103620002ca57620002c96200026c565b5b50919050565b60008190508160005260206000209050919050565b60006020601f8301049050919050565b600082821b905092915050565b600060088302620003347fffffffffffffffffffffffffffffffffffffffffffffffffffffffffffffffff82620002f5565b620003408683620002f5565b95508019841693508086168417925050509392505050565b6000819050919050565b6000819050919050565b60006200038d62000387620003818462000358565b62000362565b62000358565b9050919050565b6000819050919050565b620003a9836200036c565b620003c1620003b88262000394565b84845462000302565b825550505050565b600090565b620003d8620003c9565b620003e58184846200039e565b505050565b5b818110156200040d5762000401600082620003ce565b600181019050620003eb565b5050565b601f8211156200045c576200042681620002d0565b6200043184620002e5565b8101602085101562000441578190505b620004596200045085620002e5565b830182620003ea565b50505b505050565b600082821c905092915050565b6000620004816000198460080262000461565b1980831691505092915050565b60006200049c83836200046e565b9150826002028217905092915050565b620004b78262000232565b67ffffffffffffffff811115620004d357620004d26200023d565b5b620004df82546200029b565b620004ec82828562000411565b600060209050601f8311600181146200052457600084156200050f578287015190505b6200051b85826200048e565b8655506200058b565b601f1984166200053486620002d0565b60005b828110156200055e5784890151825560018201915060208501945060208101905062000537565b868310156200057e57848901516200057a601f8916826200046e565b8355505b6001600288020188555050505b505050505050565b6130ef80620005a36000396000f3fe6080604052600436106100dd5760003560e01c80639cd441da1161007f578063d4cadf6811610059578063d4cadf6814610222578063f2fde38b1461024e578063f694f7d114610277578063fc0c546a146102a2576100dd565b80639cd441da146101bf578063a22280a6146101db578063a6dde493146101f7576100dd565b806375f91ec8116100bb57806375f91ec8146101315780638259e6a01461015c578063857620e1146101785780638da5cb5b14610194576100dd565b80632eab2841146100e257806358ad6de4146100fe578063715018a61461011a575b600080fd5b6100fc60048036038101906100f79190612047565b6102cd565b005b61011860048036038101906101139190612074565b6105ab565b005b34801561012657600080fd5b5061012f610678565b005b34801561013d57600080fd5b5061014661068c565b60405161015391906120c3565b60405180910390f35b61017660048036038101906101719190612047565b6106d3565b005b610192600480360381019061018d91906120de565b610a34565b005b3480156101a057600080fd5b506101a96110e4565b6040516101b69190612172565b60405180910390f35b6101d960048036038101906101d49190612074565b61110d565b005b6101f560048036038101906101f09190612074565b611794565b005b34801561020357600080fd5b5061020c611b9a565b60405161021991906120c3565b60405180910390f35b34801561022e57600080fd5b50610237611c3d565b60405161024592919061218d565b60405180910390f35b34801561025a57600080fd5b50610275600480360381019061027091906121e2565b611c4e565b005b34801561028357600080fd5b5061028c611cd1565b604051610299919061229f565b60405180910390f35b3480156102ae57600080fd5b506102b7611d5f565b6040516102c49190612320565b60405180910390f35b600a60009054906101000a900460ff16156102e757600080fd5b6001600a60006101000a81548160ff02191690831515021790555060003411610345576040517f08c379a000000000000000000000000000000000000000000000000000000000815260040161033c906123ad565b60405180910390fd5b60003460055461035591906123fc565b600b54610362919061245f565b60045461036f9190612490565b905060006009546008548361038491906124c4565b61038e919061245f565b9050808261039c9190612490565b91506001826004546103ae9190612490565b10156103ef576040517f08c379a00000000000000000000000000000000000000000000000000000000081526004016103e690612578565b60405180910390fd5b82600454600554610400919061245f565b1115610441576040517f08c379a00000000000000000000000000000000000000000000000000000000081526004016104389061260a565b60405180910390fd5b47600581905550600360009054906101000a900473ffffffffffffffffffffffffffffffffffffffff1673ffffffffffffffffffffffffffffffffffffffff1663a9059cbb33846040518363ffffffff1660e01b81526004016104a592919061262a565b6020604051808303816000875af11580156104c4573d6000803e3d6000fd5b505050506040513d601f19601f820116820180604052508101906104e8919061268b565b50600360009054906101000a900473ffffffffffffffffffffffffffffffffffffffff1673ffffffffffffffffffffffffffffffffffffffff166370a08231306040518263ffffffff1660e01b81526004016105449190612172565b602060405180830381865afa158015610561573d6000803e3d6000fd5b505050506040513d601f19601f8201168201806040525081019061058591906126cd565b6004819055506000600a60006101000a81548160ff021916908315150217905550505050565b6000600454600660003373ffffffffffffffffffffffffffffffffffffffff1673ffffffffffffffffffffffffffffffffffffffff168152602001908152602001600020546105fa91906124c4565b905060018160045461060c9190612490565b10156106225760018161061f9190612490565b90505b60006004546005548361063591906124c4565b61063f919061245f565b90506001816005546106519190612490565b1015610667576001816106649190612490565b90505b610672818585610a34565b50505050565b610680611d85565b61068a6000611e03565b565b6000600660003373ffffffffffffffffffffffffffffffffffffffff1673ffffffffffffffffffffffffffffffffffffffff16815260200190815260200160002054905090565b6106db611d85565b600060045414610720576040517f08c379a000000000000000000000000000000000000000000000000000000000815260040161071790612746565b60405180910390fd5b600060055414610765576040517f08c379a000000000000000000000000000000000000000000000000000000000815260040161075c906127b2565b60405180910390fd5b600034116107a8576040517f08c379a000000000000000000000000000000000000000000000000000000000815260040161079f9061281e565b60405180910390fd5b6000600360009054906101000a900473ffffffffffffffffffffffffffffffffffffffff1673ffffffffffffffffffffffffffffffffffffffff166370a08231336040518263ffffffff1660e01b81526004016108059190612172565b602060405180830381865afa158015610822573d6000803e3d6000fd5b505050506040513d601f19601f8201168201806040525081019061084691906126cd565b90508082111561088b576040517f08c379a0000000000000000000000000000000000000000000000000000000008152600401610882906128b0565b60405180910390fd5b600082116108ce576040517f08c379a00000000000000000000000000000000000000000000000000000000081526004016108c59061291c565b60405180910390fd5b600360009054906101000a900473ffffffffffffffffffffffffffffffffffffffff1673ffffffffffffffffffffffffffffffffffffffff166323b872dd3330856040518463ffffffff1660e01b815260040161092d9392919061293c565b6020604051808303816000875af115801561094c573d6000803e3d6000fd5b505050506040513d601f19601f82011682018060405250810190610970919061268b565b50600360009054906101000a900473ffffffffffffffffffffffffffffffffffffffff1673ffffffffffffffffffffffffffffffffffffffff166370a08231306040518263ffffffff1660e01b81526004016109cc9190612172565b602060405180830381865afa1580156109e9573d6000803e3d6000fd5b505050506040513d601f19601f82011682018060405250810190610a0d91906126cd565b60048190555034600581905550600554600454610a2a91906124c4565b600b819055505050565b600a60009054906101000a900460ff1615610a4e57600080fd5b6001600a60006101000a81548160ff021916908315150217905550600060055460045485610a7c91906124c4565b610a86919061245f565b9050600454600660003373ffffffffffffffffffffffffffffffffffffffff1673ffffffffffffffffffffffffffffffffffffffff16815260200190815260200160002054610ad591906124c4565b811115610b17576040517f08c379a0000000000000000000000000000000000000000000000000000000008152600401610b0e906129e5565b60405180910390fd5b818185610b24919061245f565b1015610b65576040517f08c379a0000000000000000000000000000000000000000000000000000000008152600401610b5c90612a51565b60405180910390fd5b828185610b72919061245f565b1115610bb3576040517f08c379a0000000000000000000000000000000000000000000000000000000008152600401610baa90612abd565b60405180910390fd5b60006004549050600082600454610bca9190612490565b11610c0a576040517f08c379a0000000000000000000000000000000000000000000000000000000008152600401610c0190612b4f565b60405180910390fd5b600085600554610c1a9190612490565b11610c5a576040517f08c379a0000000000000000000000000000000000000000000000000000000008152600401610c5190612be1565b60405180910390fd5b600360009054906101000a900473ffffffffffffffffffffffffffffffffffffffff1673ffffffffffffffffffffffffffffffffffffffff1663a9059cbb33846040518363ffffffff1660e01b8152600401610cb792919061262a565b6020604051808303816000875af1158015610cd6573d6000803e3d6000fd5b505050506040513d601f19601f82011682018060405250810190610cfa919061268b565b50600360009054906101000a900473ffffffffffffffffffffffffffffffffffffffff1673ffffffffffffffffffffffffffffffffffffffff166370a08231306040518263ffffffff1660e01b8152600401610d569190612172565b602060405180830381865afa158015610d73573d6000803e3d6000fd5b505050506040513d601f19601f82011682018060405250810190610d9791906126cd565b6004819055503373ffffffffffffffffffffffffffffffffffffffff166108fc869081150290604051600060405180830381858888f19350505050158015610de3573d6000803e3d6000fd5b5047600581905550600554600454610dfb91906124c4565b600b819055506004548282600660003373ffffffffffffffffffffffffffffffffffffffff1673ffffffffffffffffffffffffffffffffffffffff16815260200190815260200160002054610e5091906124c4565b610e5a9190612490565b610e64919061245f565b600660003373ffffffffffffffffffffffffffffffffffffffff1673ffffffffffffffffffffffffffffffffffffffff168152602001908152602001600020819055506000805b60078054905081101561106f573373ffffffffffffffffffffffffffffffffffffffff1660078281548110610ee357610ee2612c01565b5b9060005260206000200160009054906101000a900473ffffffffffffffffffffffffffffffffffffffff1673ffffffffffffffffffffffffffffffffffffffff1603610f315780915061105c565b826006600060078481548110610f4a57610f49612c01565b5b9060005260206000200160009054906101000a900473ffffffffffffffffffffffffffffffffffffffff1673ffffffffffffffffffffffffffffffffffffffff1673ffffffffffffffffffffffffffffffffffffffff1681526020019081526020016000206000828254610fbe91906124c4565b925050819055506004546006600060078481548110610fe057610fdf612c01565b5b9060005260206000200160009054906101000a900473ffffffffffffffffffffffffffffffffffffffff1673ffffffffffffffffffffffffffffffffffffffff1673ffffffffffffffffffffffffffffffffffffffff1681526020019081526020016000206000828254611054919061245f565b925050819055505b808061106790612c30565b915050610eab565b506000600660003373ffffffffffffffffffffffffffffffffffffffff1673ffffffffffffffffffffffffffffffffffffffff16815260200190815260200160002054036110c1576110c081611ec7565b5b6000600a60006101000a81548160ff021916908315150217905550505050505050565b60008060009054906101000a900473ffffffffffffffffffffffffffffffffffffffff16905090565b600034905060008111611155576040517f08c379a000000000000000000000000000000000000000000000000000000000815260040161114c90612cea565b60405180910390fd5b60006005546004548361116891906124c4565b611172919061245f565b9050600360009054906101000a900473ffffffffffffffffffffffffffffffffffffffff1673ffffffffffffffffffffffffffffffffffffffff166370a08231336040518263ffffffff1660e01b81526004016111cf9190612172565b602060405180830381865afa1580156111ec573d6000803e3d6000fd5b505050506040513d601f19601f8201168201806040525081019061121091906126cd565b811115611252576040517f08c379a0000000000000000000000000000000000000000000000000000000008152600401611249906129e5565b60405180910390fd5b82818361125f919061245f565b10156112a0576040517f08c379a000000000000000000000000000000000000000000000000000000000815260040161129790612a51565b60405180910390fd5b8381836112ad919061245f565b11156112ee576040517f08c379a00000000000000000000000000000000000000000000000000000000081526004016112e590612abd565b60405180910390fd5b600360009054906101000a900473ffffffffffffffffffffffffffffffffffffffff1673ffffffffffffffffffffffffffffffffffffffff166323b872dd3330846040518463ffffffff1660e01b815260040161134d9392919061293c565b6020604051808303816000875af115801561136c573d6000803e3d6000fd5b505050506040513d601f19601f82011682018060405250810190611390919061268b565b50600360009054906101000a900473ffffffffffffffffffffffffffffffffffffffff1673ffffffffffffffffffffffffffffffffffffffff166370a08231306040518263ffffffff1660e01b81526004016113ec9190612172565b602060405180830381865afa158015611409573d6000803e3d6000fd5b505050506040513d601f19601f8201168201806040525081019061142d91906126cd565b6004819055504760058190555060055460045461144a91906124c4565b600b819055506000816004546114609190612490565b90506000805b6007805490508110156116d1573373ffffffffffffffffffffffffffffffffffffffff166007828154811061149e5761149d612c01565b5b9060005260206000200160009054906101000a900473ffffffffffffffffffffffffffffffffffffffff1673ffffffffffffffffffffffffffffffffffffffff160361159357600191506004548484600660003373ffffffffffffffffffffffffffffffffffffffff1673ffffffffffffffffffffffffffffffffffffffff1681526020019081526020016000205461153791906124c4565b61154191906123fc565b61154b919061245f565b600660003373ffffffffffffffffffffffffffffffffffffffff1673ffffffffffffffffffffffffffffffffffffffff168152602001908152602001600020819055506116be565b8260066000600784815481106115ac576115ab612c01565b5b9060005260206000200160009054906101000a900473ffffffffffffffffffffffffffffffffffffffff1673ffffffffffffffffffffffffffffffffffffffff1673ffffffffffffffffffffffffffffffffffffffff168152602001908152602001600020600082825461162091906124c4565b92505081905550600454600660006007848154811061164257611641612c01565b5b9060005260206000200160009054906101000a900473ffffffffffffffffffffffffffffffffffffffff1673ffffffffffffffffffffffffffffffffffffffff1673ffffffffffffffffffffffffffffffffffffffff16815260200190815260200160002060008282546116b6919061245f565b925050819055505b80806116c990612c30565b915050611466565b508061178c576007339080600181540180825580915050600190039060005260206000200160009091909190916101000a81548173ffffffffffffffffffffffffffffffffffffffff021916908373ffffffffffffffffffffffffffffffffffffffff16021790555060045483611748919061245f565b600660003373ffffffffffffffffffffffffffffffffffffffff1673ffffffffffffffffffffffffffffffffffffffff168152602001908152602001600020819055505b505050505050565b600a60009054906101000a900460ff16156117ae57600080fd5b6001600a60006101000a81548160ff0219169083151502179055506000821161180c576040517f08c379a000000000000000000000000000000000000000000000000000000000815260040161180390612d7c565b60405180910390fd5b600360009054906101000a900473ffffffffffffffffffffffffffffffffffffffff1673ffffffffffffffffffffffffffffffffffffffff166370a08231336040518263ffffffff1660e01b81526004016118679190612172565b602060405180830381865afa158015611884573d6000803e3d6000fd5b505050506040513d601f19601f820116820180604052508101906118a891906126cd565b8211156118ea576040517f08c379a00000000000000000000000000000000000000000000000000000000081526004016118e190612de8565b60405180910390fd5b6000826004546118fa91906123fc565b600b54611907919061245f565b6005546119149190612490565b905060006009546008548361192991906124c4565b611933919061245f565b905080826119419190612490565b91506001826005546119539190612490565b1015611994576040517f08c379a000000000000000000000000000000000000000000000000000000000815260040161198b90612e7a565b60405180910390fd5b826004546005546119a5919061245f565b11156119e6576040517f08c379a00000000000000000000000000000000000000000000000000000000081526004016119dd9061260a565b60405180910390fd5b600360009054906101000a900473ffffffffffffffffffffffffffffffffffffffff1673ffffffffffffffffffffffffffffffffffffffff166323b872dd3330876040518463ffffffff1660e01b8152600401611a459392919061293c565b6020604051808303816000875af1158015611a64573d6000803e3d6000fd5b505050506040513d601f19601f82011682018060405250810190611a88919061268b565b50600360009054906101000a900473ffffffffffffffffffffffffffffffffffffffff1673ffffffffffffffffffffffffffffffffffffffff166370a08231306040518263ffffffff1660e01b8152600401611ae49190612172565b602060405180830381865afa158015611b01573d6000803e3d6000fd5b505050506040513d601f19601f82011682018060405250810190611b2591906126cd565b6004819055503373ffffffffffffffffffffffffffffffffffffffff166108fc839081150290604051600060405180830381858888f19350505050158015611b71573d6000803e3d6000fd5b50476005819055506000600a60006101000a81548160ff02191690831515021790555050505050565b6000600360009054906101000a900473ffffffffffffffffffffffffffffffffffffffff1673ffffffffffffffffffffffffffffffffffffffff166370a08231336040518263ffffffff1660e01b8152600401611bf79190612172565b602060405180830381865afa158015611c14573d6000803e3d6000fd5b505050506040513d601f19601f82011682018060405250810190611c3891906126cd565b905090565b600080600854600954915091509091565b611c56611d85565b600073ffffffffffffffffffffffffffffffffffffffff168173ffffffffffffffffffffffffffffffffffffffff1603611cc5576040517f08c379a0000000000000000000000000000000000000000000000000000000008152600401611cbc90612f0c565b60405180910390fd5b611cce81611e03565b50565b60018054611cde90612f5b565b80601f0160208091040260200160405190810160405280929190818152602001828054611d0a90612f5b565b8015611d575780601f10611d2c57610100808354040283529160200191611d57565b820191906000526020600020905b815481529060010190602001808311611d3a57829003601f168201915b505050505081565b600360009054906101000a900473ffffffffffffffffffffffffffffffffffffffff1681565b611d8d612004565b73ffffffffffffffffffffffffffffffffffffffff16611dab6110e4565b73ffffffffffffffffffffffffffffffffffffffff1614611e01576040517f08c379a0000000000000000000000000000000000000000000000000000000008152600401611df890612fd8565b60405180910390fd5b565b60008060009054906101000a900473ffffffffffffffffffffffffffffffffffffffff169050816000806101000a81548173ffffffffffffffffffffffffffffffffffffffff021916908373ffffffffffffffffffffffffffffffffffffffff1602179055508173ffffffffffffffffffffffffffffffffffffffff168173ffffffffffffffffffffffffffffffffffffffff167f8be0079c531659141344cd1fd0a4f28419497f9722a3daafe3b4186f6b6457e060405160405180910390a35050565b6007805490508110611f0e576040517f08c379a0000000000000000000000000000000000000000000000000000000008152600401611f059061306a565b60405180910390fd5b60076001600780549050611f229190612490565b81548110611f3357611f32612c01565b5b9060005260206000200160009054906101000a900473ffffffffffffffffffffffffffffffffffffffff1660078281548110611f7257611f71612c01565b5b9060005260206000200160006101000a81548173ffffffffffffffffffffffffffffffffffffffff021916908373ffffffffffffffffffffffffffffffffffffffff1602179055506007805480611fcc57611fcb61308a565b5b6001900381819060005260206000200160006101000a81549073ffffffffffffffffffffffffffffffffffffffff0219169055905550565b600033905090565b600080fd5b6000819050919050565b61202481612011565b811461202f57600080fd5b50565b6000813590506120418161201b565b92915050565b60006020828403121561205d5761205c61200c565b5b600061206b84828501612032565b91505092915050565b6000806040838503121561208b5761208a61200c565b5b600061209985828601612032565b92505060206120aa85828601612032565b9150509250929050565b6120bd81612011565b82525050565b60006020820190506120d860008301846120b4565b92915050565b6000806000606084860312156120f7576120f661200c565b5b600061210586828701612032565b935050602061211686828701612032565b925050604061212786828701612032565b9150509250925092565b600073ffffffffffffffffffffffffffffffffffffffff82169050919050565b600061215c82612131565b9050919050565b61216c81612151565b82525050565b60006020820190506121876000830184612163565b92915050565b60006040820190506121a260008301856120b4565b6121af60208301846120b4565b9392505050565b6121bf81612151565b81146121ca57600080fd5b50565b6000813590506121dc816121b6565b92915050565b6000602082840312156121f8576121f761200c565b5b6000612206848285016121cd565b91505092915050565b600081519050919050565b600082825260208201905092915050565b60005b8381101561224957808201518184015260208101905061222e565b60008484015250505050565b6000601f19601f8301169050919050565b60006122718261220f565b61227b818561221a565b935061228b81856020860161222b565b61229481612255565b840191505092915050565b600060208201905081810360008301526122b98184612266565b905092915050565b6000819050919050565b60006122e66122e16122dc84612131565b6122c1565b612131565b9050919050565b60006122f8826122cb565b9050919050565b600061230a826122ed565b9050919050565b61231a816122ff565b82525050565b60006020820190506123356000830184612311565b92915050565b7f4572726f723a204d7573742073776170206120706f73697469766520616d6f7560008201527f6e74206f66204554480000000000000000000000000000000000000000000000602082015250565b600061239760298361221a565b91506123a28261233b565b604082019050919050565b600060208201905081810360008301526123c68161238a565b9050919050565b7f4e487b7100000000000000000000000000000000000000000000000000000000600052601160045260246000fd5b600061240782612011565b915061241283612011565b925082820190508082111561242a576124296123cd565b5b92915050565b7f4e487b7100000000000000000000000000000000000000000000000000000000600052601260045260246000fd5b600061246a82612011565b915061247583612011565b92508261248557612484612430565b5b828204905092915050565b600061249b82612011565b91506124a683612011565b92508282039050818111156124be576124bd6123cd565b5b92915050565b60006124cf82612011565b91506124da83612011565b92508282026124e881612011565b915082820484148315176124ff576124fe6123cd565b5b5092915050565b7f4572726f723a2043616e6e6f74206465706c65746520546f6b656e207265736560008201527f727665732062656c6f77203120546f6b656e0000000000000000000000000000602082015250565b600061256260328361221a565b915061256d82612506565b604082019050919050565b6000602082019050818103600083015261259181612555565b9050919050565b7f4572726f723a2045786368616e6765207261746520677265617465722074686160008201527f6e20737065636966696564207261746500000000000000000000000000000000602082015250565b60006125f460308361221a565b91506125ff82612598565b604082019050919050565b60006020820190508181036000830152612623816125e7565b9050919050565b600060408201905061263f6000830185612163565b61264c60208301846120b4565b9392505050565b60008115159050919050565b61266881612653565b811461267357600080fd5b50565b6000815190506126858161265f565b92915050565b6000602082840312156126a1576126a061200c565b5b60006126af84828501612676565b91505092915050565b6000815190506126c78161201b565b92915050565b6000602082840312156126e3576126e261200c565b5b60006126f1848285016126b8565b91505092915050565b7f546f6b656e20726573657276657320776173206e6f7420300000000000000000600082015250565b600061273060188361221a565b915061273b826126fa565b602082019050919050565b6000602082019050818103600083015261275f81612723565b9050919050565b7f45544820726573657276657320776173206e6f7420302e000000000000000000600082015250565b600061279c60178361221a565b91506127a782612766565b602082019050919050565b600060208201905081810360008301526127cb8161278f565b9050919050565b7f4e6565642065746820746f2063726561746520706f6f6c2e0000000000000000600082015250565b600061280860188361221a565b9150612813826127d2565b602082019050919050565b60006020820190508181036000830152612837816127fb565b9050919050565b7f4e6f74206861766520656e6f75676820746f6b656e7320746f2063726561746560008201527f2074686520706f6f6c0000000000000000000000000000000000000000000000602082015250565b600061289a60298361221a565b91506128a58261283e565b604082019050919050565b600060208201905081810360008301526128c98161288d565b9050919050565b7f4e65656420746f6b656e7320746f2063726561746520706f6f6c2e0000000000600082015250565b6000612906601b8361221a565b9150612911826128d0565b602082019050919050565b60006020820190508181036000830152612935816128f9565b9050919050565b60006060820190506129516000830186612163565b61295e6020830185612163565b61296b60408301846120b4565b949350505050565b7f4572726f723a205573657220646f6573206e6f74206861766520656e6f75676860008201527f20746f6b656e7300000000000000000000000000000000000000000000000000602082015250565b60006129cf60278361221a565b91506129da82612973565b604082019050919050565b600060208201905081810360008301526129fe816129c2565b9050919050565b7f4572726f723a2042656c6f77206d696e2065786368616e676520726174650000600082015250565b6000612a3b601e8361221a565b9150612a4682612a05565b602082019050919050565b60006020820190508181036000830152612a6a81612a2e565b9050919050565b7f4572726f723a2041626f7665206d61782065786368616e676520726174650000600082015250565b6000612aa7601e8361221a565b9150612ab282612a71565b602082019050919050565b60006020820190508181036000830152612ad681612a9a565b9050919050565b7f4572726f723a2043616e6e6f74206465706c65746520746f6b656e207265736560008201527f7276657320746f20300000000000000000000000000000000000000000000000602082015250565b6000612b3960298361221a565b9150612b4482612add565b604082019050919050565b60006020820190508181036000830152612b6881612b2c565b9050919050565b7f4572726f723a2043616e6e6f74206465706c657465204554482072657365727660008201527f657320746f203000000000000000000000000000000000000000000000000000602082015250565b6000612bcb60278361221a565b9150612bd682612b6f565b604082019050919050565b60006020820190508181036000830152612bfa81612bbe565b9050919050565b7f4e487b7100000000000000000000000000000000000000000000000000000000600052603260045260246000fd5b6000612c3b82612011565b91507fffffffffffffffffffffffffffffffffffffffffffffffffffffffffffffffff8203612c6d57612c6c6123cd565b5b600182019050919050565b7f4572726f723a20537570706c79206f6620455448206e6f7420706f736974697660008201527f6500000000000000000000000000000000000000000000000000000000000000602082015250565b6000612cd460218361221a565b9150612cdf82612c78565b604082019050919050565b60006020820190508181036000830152612d0381612cc7565b9050919050565b7f4572726f723a204d7573742073776170206120706f73697469766520616d6f7560008201527f6e74206f6620546f6b656e730000000000000000000000000000000000000000602082015250565b6000612d66602c8361221a565b9150612d7182612d0a565b604082019050919050565b60006020820190508181036000830152612d9581612d59565b9050919050565b7f4572726f723a20446f6e2774206861766520656e6f75676820746f6b656e7300600082015250565b6000612dd2601f8361221a565b9150612ddd82612d9c565b602082019050919050565b60006020820190508181036000830152612e0181612dc5565b9050919050565b7f4572726f723a2043616e6e6f74206465706c657465204554482072657365727660008201527f65732062656c6f77203120455448000000000000000000000000000000000000602082015250565b6000612e64602e8361221a565b9150612e6f82612e08565b604082019050919050565b60006020820190508181036000830152612e9381612e57565b9050919050565b7f4f776e61626c653a206e6577206f776e657220697320746865207a65726f206160008201527f6464726573730000000000000000000000000000000000000000000000000000602082015250565b6000612ef660268361221a565b9150612f0182612e9a565b604082019050919050565b60006020820190508181036000830152612f2581612ee9565b9050919050565b7f4e487b7100000000000000000000000000000000000000000000000000000000600052602260045260246000fd5b60006002820490506001821680612f7357607f821691505b602082108103612f8657612f85612f2c565b5b50919050565b7f4f776e61626c653a2063616c6c6572206973206e6f7420746865206f776e6572600082015250565b6000612fc260208361221a565b9150612fcd82612f8c565b602082019050919050565b60006020820190508181036000830152612ff181612fb5565b9050919050565b7f73706563696669656420696e646578206973206c6172676572207468616e207460008201527f6865206e756d626572206f66206c707300000000000000000000000000000000602082015250565b600061305460308361221a565b915061305f82612ff8565b604082019050919050565b6000602082019050818103600083015261308381613047565b9050919050565b7f4e487b7100000000000000000000000000000000000000000000000000000000600052603160045260246000fdfea2646970667358221220016da74baa6a968d0cd602c614850f371d85136eb8a331195b84ba9f44756dfb64736f6c63430008110033",
  "linkReferences": {},
  "deployedLinkReferences": {}
}